:100000000C945D010C947E010C947E010C947E0195
:100010000C947E010C947E010C947E010C947E0164
:100020000C947E010C947E010C947E010C947E0154
:100030000C947E010C947E010C947E010C947E0144
:100040000C947E010C947E010C947E010C947E0134
:100050000C947E010C947E010C947E010C94BC01E6
:100060000C947E010C947E010C947E010C947E0114
:100070000C947E010C947E010C947E010C947E0104
:100080000C947E010C947E010C947E010C947E01F4
:100090000C947E010C947E010C947E010C947E01E4
:1000A0000C947E010C947E010C947E010C947E01D4
:1000B0000C947E010C947E010C947E010C947E01C4
:1000C0000C947E010C947E010C947E010C947E01B4
:1000D0000C947E010C947E010C947E010C947E01A4
:1000E0000C947E01F202F702FC020603100389035E
:1000F0001A0322032A0334033E0348035703610310
:1001000089036B0375037F03AD03B0039F03A30350
:10011000A903E703B403B803BE03C203C603CC03B9
:10012000D003D403E703DA03DE03E2030C94B00345
:100130000C94D0030C94A9030C94AD030C945703B6
:100140000C94C2030C94B4030C9475030C947F03B9
:100150000C94E2030C9489030C9461030C94060341
:100160000C9448030C9434030C94F7020C94DA03B7
:100170000C946B030C94DE030C942A030C94C603BA
:100180000C94E7030C94B8030C94F2020C94220331
:100190000C949F030C9410030C941A030C94CC033E
:1001A0000C94D4030C94BE030C943E030C94FC02F8
:1001B0000C94A30300000A0B02090C0D0E080703A0
:1001C000040100000000000000000000000000002A
:1001D000000000000000000000000000000000001F
:1001E00012111000000000000000000000000000DC
:1001F00000000000000000000000010210202008A4
:100200000810204010204080020102010804020171
:1002100001020408102040808040201008040201E0
:100220008004020180402010080402010804020139
:1002300001020408102040800102040810204080C0
:1002400005050505070508080808020202020A0A52
:100250000808040404040101010101010101030370
:10026000030303030303040707070C0C0C0C0C0C1B
:100270000C0C0202020206060606060606060B0B18
:100280000B0B0B0B0B0B00002200250028002B0092
:100290002E003100340002010000050108010B01AD
:1002A00000002100240027002A002D003000330028
:1002B00001010000040107010A0111241FBECFEF54
:1002C000D1E2DEBFCDBF00E00CBF12E0A0E0B2E0A3
:1002D000EEEBF8E000E00BBF02C007900D92A430F7
:1002E000B107D9F722E0A4E0B2E001C01D92AF301F
:1002F000B207E1F70E94AD010C945D040C9400007C
:1003000061E0809102020C94E80360910402709114
:100310000502809102020E94C902209100023091E0
:1003200001028091040290910502820F931F909325
:1003300005028093040201978E3F910538F03195B4
:100340002195310930930102209300026EE170E0A3
:1003500080E090E00C942B0208950E9467020E94B6
:10036000AC010E948001C0E0D0E00E94850120978E
:10037000E1F30E940000F9CF1F920F920FB60F9287
:1003800011242F933F938F939F93AF93BF938091AB
:10039000070290910802A0910902B0910A023091DF
:1003A000060223E0230F2D3720F40196A11DB11D75
:1003B00005C026E8230F0296A11DB11D2093060259
:1003C0008093070290930802A0930902B0930A0257
:1003D00080910B0290910C02A0910D02B0910E023F
:1003E0000196A11DB11D80930B0290930C02A09366
:1003F0000D02B0930E02BF91AF919F918F913F91EB
:100400002F910F900FBE0F901F9018953FB7F89443
:1004100080910B0290910C02A0910D02B0910E02FE
:1004200026B5A89B05C02F3F19F00196A11DB11D4F
:100430003FBFBA2FA92F982F8827820F911DA11D8A
:10044000B11DBC01CD0142E0660F771F881F991FC7
:100450004A95D1F708958F929F92AF92BF92CF9213
:10046000DF92EF92FF926B017C010E9406024B012A
:100470005C01C114D104E104F10401F10E945404AF
:100480000E940602DC01CB0188199909AA09BB095F
:10049000883E9340A105B10560F321E0C21AD1085E
:1004A000E108F10888EE880E83E0981EA11CB11CBB
:1004B000C114D104E104F10419F7DBCFFF90EF90F0
:1004C000DF90CF90BF90AF909F908F9008957894D9
:1004D00084B5826084BD84B5816084BD85B5826049
:1004E00085BD85B5816085BDEEE6F0E080818160E7
:1004F0008083E1E8F0E010828081826080838081E7
:1005000081608083E0E8F0E0808181608083E1EBBE
:10051000F0E0808184608083E0EBF0E080818160A6
:100520008083E1E9F0E08081826080838081816066
:100530008083E0E9F0E0808181608083E1EAF0E09F
:10054000808182608083808181608083E0EAF0E046
:10055000808181608083E1E2F1E08081826080833C
:10056000808181608083E0E2F1E08081816080832E
:10057000EAE7F0E08081846080838081826080830C
:100580008081816080838081806880831092C10037
:1005900008951F93CF93DF93182FEB0161E00E9422
:1005A000E803209711F460E004C0CF3FD10539F48F
:1005B00061E0812FDF91CF911F910C942404E12FF2
:1005C000F0E0EC54FE4FE4914E2F50E0FA013197E9
:1005D000E231F10508F09DC08827EE58FF4F8F4F9C
:1005E0000C94550484B5806884BDC7BD97C084B59C
:1005F000806284BDC8BD92C0809180008068809375
:100600008000D0938900C093880088C080918000CA
:10061000806280938000D0938B00C0938A007EC05C
:1006200080918000886080938000D0938D00C0937B
:100630008C0074C08091B00080688093B000C0933B
:10064000B3006CC08091B00080628093B000C09312
:10065000B40064C080919000806880939000D09333
:100660009900C09398005AC0809190008062809356
:100670009000D0939B00C0939A0050C0809190004E
:10068000886080939000D0939D00C0939C0046C0EA
:100690008091A00080688093A0008091A0008F7B53
:1006A0008093A000D093A900C093A80037C0809188
:1006B000A00080628093A000D093AB00C093AA00FA
:1006C0002DC08091A00088608093A000D093AD00E1
:1006D000C093AC0023C080912001806880932001EA
:1006E000D0932901C093280119C080912001806214
:1006F00080932001D0932B01C0932A010FC08091D9
:100700002001886080932001D0932D01C0932C019B
:1007100005C0C038D1050CF04BCF45CFDF91CF914C
:100720001F91089590E0FC013197E231F10508F046
:100730004EC08827EC57FF4F8F4F0C945504809183
:1007400080008F7703C0809180008F7D8093800030
:10075000089580918000877FF9CF84B58F7702C09C
:1007600084B58F7D84BD08958091B0008F7703C0DC
:100770008091B0008F7D8093B000089580919000AB
:100780008F7707C0809190008F7D03C0809190008B
:10079000877F8093900008958091A0008F7707C095
:1007A0008091A0008F7D03C08091A000877F8093FF
:1007B000A0000895809120018F7707C080912001CB
:1007C0008F7D03C080912001877F80932001089551
:1007D000CF93DF9390E0FC01E650FE4F2491FC01A3
:1007E000E05CFD4F8491882361F190E0880F991FB0
:1007F000FC01E056FD4FC591D491FC01EA57FD4F35
:10080000A591B491611109C09FB7F8948881209592
:1008100082238883EC912E230BC0623061F49FB752
:10082000F8943881822F809583238883EC912E2B36
:100830002C939FBF06C08FB7F894E8812E2B288396
:100840008FBFDF91CF9108951F93CF93DF93282F10
:1008500030E0F901EC54FE4F8491F901E650FE4F6F
:10086000D491F901E05CFD4FC491CC23C9F0162F5F
:1008700081110E949203EC2FF0E0EE0FFF1FEA5768
:10088000FD4FA591B4918FB7F894111105C09C91BB
:10089000ED2FE095E92302C0EC91ED2BEC938FBF97
:1008A000DF91CF911F9108950895EE0FFF1F881FCC
:0E08B0008BBF0790F691E02D1994F894FFCFBE
:0408BE0005003700FA
:00000001FF
