:100000000C9429010C944A010C944A010C944A0165
:100010000C944A010C944A010C944A010C944A0134
:100020000C944A010C944A010C944A010C944A0124
:100030000C944A010C944A010C944A010C944A0114
:100040000C944A010C944A010C944A010C944A0104
:100050000C944A010C944A010C944A010C946601D8
:100060000C944A010C944A010C944A010C944A01E4
:100070000C944A010C944A010C944A010C944A01D4
:100080000C944A010C944A010C944A010C944A01C4
:100090000C944A010C944A010C944A010C944A01B4
:1000A0000C944A010C944A010C944A010C944A01A4
:1000B0000C944A010C944A010C944A010C944A0194
:1000C0000C944A010C944A010C944A010C944A0184
:1000D0000C944A010C944A010C944A010C944A0174
:1000E0000C944A012D0230021F02230229026702EA
:1000F000340238023E02420246024C0250025402CE
:1001000067025A025E0262020C9442020C942902B7
:100110000C9450020C941F020C943E020C94620248
:100120000C945E020C9446020C9467020C94230219
:100130000C9430020C9434020C944C020C9438024F
:100140000C9454020C942D020C945A0200000A0BD9
:1001500002090C0D0E080703040100000000000056
:10016000000000000000000000000000000000008F
:10017000000000000000000012111000000000004C
:10018000000000000000000000000000000000006F
:10019000000001021020200808102040102040809C
:1001A000020102010804020101020408102040803B
:1001B00080402010080402018004020180402010C9
:1001C0000804020108040201010204081020408012
:1001D00001020408102040800505050507050808F0
:1001E0000808020202020A0A0808040404040101C1
:1001F00001010101010103030303030303030407D6
:1002000007070C0C0C0C0C0C0C0C0202020206066C
:100210000606060606060B0B0B0B0B0B0B0B000062
:100220002200250028002B002E003100340002019E
:100230000000050108010B01000021002400270037
:100240002A002D00300033000101000004010701E5
:100250000A0111241FBECFEFD1E2DEBFCDBF00E007
:100260000CBF12E0A0E0B2E0ECEBF5E000E00BBF69
:1002700002C007900D92A230B107D9F722E0A2E0A8
:10028000B2E001C01D92AB30B207E1F70E94570106
:100290000C94DC020C94000061E0809100020C944C
:1002A000680261E0809100020C94A40208950E940B
:1002B000B0010E9456010E944C01C0E0D0E00E94B3
:1002C00051012097E1F30E940000F9CF1F920F9295
:1002D0000FB60F9211242F933F938F939F93AF9359
:1002E000BF938091030290910402A0910502B09106
:1002F00006023091020223E0230F2D3720F40196ED
:10030000A11DB11D05C026E8230F0296A11DB11D38
:10031000209302028093030290930402A0930502AB
:10032000B09306028091070290910802A091090201
:10033000B0910A020196A11DB11D8093070290930E
:100340000802A0930902B0930A02BF91AF919F9156
:100350008F913F912F910F900FBE0F901F90189586
:10036000789484B5826084BD84B5816084BD85B590
:10037000826085BD85B5816085BDEEE6F0E0808157
:1003800081608083E1E8F0E0108280818260808378
:10039000808181608083E0E8F0E0808181608083FB
:1003A000E1EBF0E0808184608083E0EBF0E080812D
:1003B00081608083E1E9F0E08081826080838081D8
:1003C00081608083E0E9F0E0808181608083E1EA00
:1003D000F0E0808182608083808181608083E0EAB8
:1003E000F0E0808181608083E1E2F1E080818260E1
:1003F0008083808181608083E0E2F1E080818160A0
:100400008083EAE7F0E0808184608083808182607D
:100410008083808181608083808180688083109266
:10042000C100089590E0FC013197E231F10508F038
:100430004EC08827EE58FF4F8F4F0C94D402809106
:1004400080008F7703C0809180008F7D8093800033
:10045000089580918000877FF9CF84B58F7702C09F
:1004600084B58F7D84BD08958091B0008F7703C0DF
:100470008091B0008F7D8093B000089580919000AE
:100480008F7707C0809190008F7D03C0809190008E
:10049000877F8093900008958091A0008F7707C098
:1004A0008091A0008F7D03C08091A000877F809302
:1004B000A0000895809120018F7707C080912001CE
:1004C0008F7D03C080912001877F80932001089554
:1004D000CF93DF9390E0FC01EE56FE4F2491FC0198
:1004E000E852FE4F8491882361F190E0880F991FB4
:1004F000FC01E85CFD4FC591D491FC01E25EFD4F2B
:10050000A591B491611109C09FB7F8948881209595
:1005100082238883EC912E230BC0623061F49FB755
:10052000F8943881822F809583238883EC912E2B39
:100530002C939FBF06C08FB7F894E8812E2B288399
:100540008FBFDF91CF9108951F93CF93DF93282F13
:1005500030E0F901E45BFE4F8491F901EE56FE4F65
:10056000D491F901E852FE4FC491CC23C9F0162F63
:1005700081110E941202EC2FF0E0EE0FFF1FE25EED
:10058000FD4FA591B4918FB7F894111105C09C91BE
:10059000ED2FE095E92302C0EC91ED2BEC938FBF9A
:1005A000DF91CF911F910895EE0FFF1F881F8BBF22
:0C05B0000790F691E02D1994F894FFCF0D
:0205BC00370006
:00000001FF
