:100000000C9434010C9465010C9465010C94650109
:100010000C9465010C9465010C9465010C946501C8
:100020000C9465010C9465010C9465010C946501B8
:100030000C9465010C9465010C9465010C946501A8
:100040000C9465010C9465010C9465010C94650198
:100050000C9465010C9465010C9465010C94E60404
:100060000C9465010C9465010C9465010C94650178
:100070000C9465010C9465010C9465010C94650168
:100080000C9465010C9465010C9465010C94650158
:100090000C9465010C9465010C9465010C94650148
:1000A0000C9465010C9465010C9465010C94650138
:1000B0000C9465010C9465010C9465010C94650128
:1000C0000C9465010C9465010C9465010C94650118
:1000D0000C9465010C9465010C9465010C94650108
:1000E0000C94650119061C060B060F06150653062F
:1000F000200624062A062E06320638063C0640064E
:10010000530646064A064E060C940B060C9432061D
:100110000C940F060C94CC010C945A030C946003BD
:100120000C9453060C94CF010C942E060C941906D3
:100130000C94B9010C9420060C9438060C943C06DF
:100140000C9440060C9446060C941C060C942A064B
:100150000C944A060C944E060C9424060C94150636
:1001600000000A0B02090C0D0E0807030401000031
:10017000000000000000000000000000000000007F
:10018000000000000000000000000000121110003C
:10019000000000000000000000000000000000005F
:1001A000000000000000010210202008081020407C
:1001B000102040800201020108040201010204082B
:1001C00010204080804020100804020180040201B9
:1001D0008040201008040201080402010102040802
:1001E000102040800102040810204080050505050C
:1001F000070508080808020202020A0A080804049F
:1002000004040101010101010101030303030303CC
:100210000303040707070C0C0C0C0C0C0C0C02025B
:10022000020206060606060606060B0B0B0B0B0B58
:100230000B0B00002200250028002B002E003100AF
:10024000340002010000050108010B01000021003B
:10025000240027002A002D00300033000101000097
:10026000040107010A01B90111241FBECFEFD1E239
:10027000DEBFCDBF00E00CBF12E0A0E0B2E0E2E5DF
:10028000F2E100E00BBF02C007900D92A233B1076C
:10029000D9F722E0A2E3B2E001C01D92A036B20776
:1002A000E1F711E0C4E3D1E000E006C021970109C5
:1002B000802FFE010E94E306C333D10780E00807C8
:1002C000A9F70E94D7040C9427090C94000020E0A1
:1002D00042E060E182E392E00C949502CF93DF93D9
:1002E00040E060E082E392E00E947A0260E072E027
:1002F00082E392E00E94A003CAE4D2E04C815D81D7
:100300006E817F8122E030E082E392E00E94D4049B
:100310006FED82E392E00E94A20367E072E082E365
:1003200092E00E94A00341E060E082E392E00E943C
:100330007A0269E072E082E392E00E94A0034881C1
:1003400059816A817B8122E030E082E392E00E9461
:10035000D40464E172E082E392E00E94A00368EEBC
:1003600073E080E090E0DF91CF910C9455050C9400
:100370006E01CF92EF920F9382E0C82E93E0E92EA8
:1003800004E025E04BE06CE082E392E00E943A0357
:100390000F91EF90CF90089580E090E00895089538
:1003A000CF93DF93EC0160E08E810E94900681E0A4
:1003B00090E00E94910561E08E810E94900681E0AC
:1003C00090E00E94910560E08E810E94900684E694
:1003D00090E0DF91CF910C949105CF92DF92EF9254
:1003E000FF920F931F93CF93DF937C016C0187E003
:1003F000C80ED11CC0E0D0E0062F10E0B8010C2ED2
:1004000002C0759567950A94E2F76170F6018191D3
:100410006F010E9490062196C430D10579F7C7017B
:10042000DF91CF911F910F91FF90EF90DF90CF90D0
:100430000C94D001CF92DF92EF92FF920F931F9313
:10044000CF93DF937C016C0187E0C80ED11CC0E024
:10045000D0E0062F10E0B8010C2E02C0759567950C
:100460000A94E2F76170F60181916F010E94900693
:100470002196C830D10579F7C701DF91CF911F913F
:100480000F91FF90EF90DF90CF900C94D0011F93CD
:10049000CF93DF93EC01162F642F8C810E9490067E
:1004A0008D818F3F19F060E00E9490068F85612F4B
:1004B00084FF06C0CE01DF91CF911F910C941A02E8
:1004C00070E084E0759567958A95E1F7CE010E940A
:1004D000ED01612FCE01DF91CF911F910C94ED01C1
:1004E00040E00C94470261E00E94700280ED97E0CA
:1004F0000C949105FC01443008F043E083894817CF
:1005000010F04FEF480FDF01A40FB11D54969C91DE
:10051000690F6068CF010C947002FC016089262F7E
:100520002460208B6C600C947002EF92FF920F930A
:100530001F93CF93DF93EC01423018F08F858860D2
:100540008F874B8B1C8A80E48D8B6E8B70E0605C98
:100550007F4F6F8B222329F0413019F48F858460FF
:100560008F8761E08C810E9454068D818F3F19F046
:1005700061E00E94540661E08E810E9454067E0173
:1005800087E0E80EF11C00E010E08F8584FD03C0D9
:1005900084E090E002C088E090E0081719074CF46E
:1005A00061E0F70181917F010E9454060F5F1F4FA8
:1005B000ECCF80E593EC0E94910560E08C810E9475
:1005C000900660E08E810E9490068D818F3F19F029
:1005D00060E00E9490066F8564FD1DC063E0CE015F
:1005E0000E94ED0184E991E10E94910563E0CE0152
:1005F0000E94ED0184E991E10E94910563E0CE0142
:100600000E94ED0186E990E00E94910562E0CE0132
:100610000E94ED0116C06062CE010E94700284E962
:1006200091E10E9491056F856062CE010E94700287
:1006300086E990E00E9491056F856062CE010E947C
:1006400070026F856062CE010E94700284E0888B28
:10065000CE010E948D02CE010E94730282E0898B3E
:1006600066E0CE01DF91CF911F910F91FF90EF9047
:100670000C947002CF92EF920F93FC0113821282BE
:100680008AE192E09183808364838FEF8583468340
:1006900027830087E186C286138614861586168610
:1006A000178620E041E060E1CF010F91EF90CF90FD
:1006B0000C94950241E00E94470281E090E0089589
:1006C000CF92DF92EF92FF920F931F93CF93DF931E
:1006D0006C017A018B01C0E0D0E0CE15DF0589F016
:1006E000D8016D918D01D601ED91FC910190F081C1
:1006F000E02DC6011995892B11F47E0102C02196C7
:10070000ECCFC701DF91CF911F910F91FF90EF9038
:10071000DF90CF9008956115710579F0FB0101908C
:100720000020E9F73197AF01461B570BDC01ED9133
:10073000FC910280F381E02D199480E090E008950F
:100740000C948B03DC01ED91FC910190F081E02D84
:1007500019944F925F926F927F92EF92FF920F9354
:100760001F93CF93DF93CDB7DEB7A1970FB6F89461
:10077000DEBF0FBECDBF7C01FA01CB0119A2223032
:1007800008F42AE08E010F5D1F4F422E512C612C80
:10079000712CBF01A30192010E94C106F901CA0197
:1007A000015011096A3014F4605D01C0695CD80120
:1007B0006C93232B242B252B61F7B801C7010E94D2
:1007C0008B03A1960FB6F894DEBF0FBECDBFDF91AD
:1007D000CF911F910F91FF90EF907F906F905F905E
:1007E0004F9008954F925F926F927F928F929F9257
:1007F000AF92BF92CF92DF92EF92FF92CF93DF93AF
:10080000EC016A017B01B22E9A01AB01C701B6016E
:100810000E942209882319F065E272E027C02601B0
:100820003701E89477F82FEF3FEF4FE75FE7C30119
:10083000B2010E94220981110DC02FEF3FEF4FE757
:100840005FE7C301B2010E94580718161CF469E261
:1008500072E00CC02FEF3FEF4FE75FE4C701B60136
:100860000E94B00818169CF46DE272E0CE01DF9190
:10087000CF91FF90EF90DF90CF90BF90AF909F907F
:100880008F907F906F905F904F900C948B032FEF21
:100890003FEF4FE75FECC701B6010E94580787FDA5
:1008A000E3CF20E030E0A901C701B6010E9458075C
:1008B00087FF0AC06DE2CE010E94A2034C01F7FA45
:1008C000F094F7F8F09402C0812C912CA12C60E0F8
:1008D00070E080E09FE3AB1441F020E030E040E2C4
:1008E00051E40E945D07A394F6CF9B01AC01C701C0
:1008F000B6010E94EC062B013C010E94CF076B0160
:100900007C010E94FE079B01AC01C301B2010E9461
:10091000EB062B013C012AE0B701A601CE010E94A3
:10092000A9037C01E80CF91CBB2031F06EE2CE017A
:100930000E94A203E80EF91EDB2CDD2029F120E045
:1009400030E040E251E4C301B2010E94B5082B013E
:100950003C010E94CF074B01A12CB12C2AE0B5012C
:10096000A401CE010E94A903E80EF91EC501B4013D
:100970000E94FE079B01AC01C301B2010E94EB067D
:100980002B013C01DA94D9CFC701DF91CF91FF90C1
:10099000EF90DF90CF90BF90AF909F908F907F901F
:1009A0006F905F904F9008950C94F20308950E9409
:1009B0009C050E94D6040E946701C0E0D0E00E941E
:1009C000B7012097E1F30E940000F9CF1F920F9228
:1009D0000FB60F9211242F933F938F939F93AF9352
:1009E000BF938091580290915902A0915A02B09100
:1009F0005B023091570223E0230F2D3720F401963C
:100A0000A11DB11D05C026E8230F0296A11DB11D31
:100A1000209357028093580290935902A0935A0250
:100A2000B0935B0280915C0290915D02A0915E02A6
:100A3000B0915F020196A11DB11D80935C0290935D
:100A40005D02A0935E02B0935F02BF91AF919F9150
:100A50008F913F912F910F900FBE0F901F9018957F
:100A60003FB7F89480915C0290915D02A0915E0284
:100A7000B0915F0226B5A89B05C02F3F19F00196E3
:100A8000A11DB11D3FBFBA2FA92F982F8827820F14
:100A9000911DA11DB11DBC01CD0142E0660F771F64
:100AA000881F991F4A95D1F708958F929F92AF9210
:100AB000BF92CF92DF92EF92FF926B017C010E9476
:100AC00030054B015C01C114D104E104F10401F1D2
:100AD0000E94C0060E943005DC01CB0188199909EB
:100AE000AA09BB09883E9340A105B10560F321E046
:100AF000C21AD108E108F10888EE880E83E0981E3A
:100B0000A11CB11CC114D104E104F10419F7DBCF1D
:100B1000FF90EF90DF90CF90BF90AF909F908F901D
:100B200008958230910538F0880F991F880F991F1A
:100B300005970197F1F70895789484B5826084BD94
:100B400084B5816084BD85B5826085BD85B58160D1
:100B500085BDEEE6F0E0808181608083E1E8F0E031
:100B60001082808182608083808181608083E0E860
:100B7000F0E0808181608083E1EBF0E0808184603F
:100B80008083E0EBF0E0808181608083E1E9F0E048
:100B9000808182608083808181608083E0E9F0E0F1
:100BA000808181608083E1EAF0E0808182608083DF
:100BB000808181608083E0EAF0E0808181608083D1
:100BC000E1E2F1E0808182608083808181608083C6
:100BD000E0E2F1E0808181608083EAE7F0E08081FB
:100BE0008460808380818260808380818160808353
:100BF0008081806880831092C100089590E0FC019C
:100C00003197E231F10508F04EC08827EE58FF4FCA
:100C10008F4F0C94E306809180008F7703C0809102
:100C200080008F7D80938000089580918000877F71
:100C3000F9CF84B58F7702C084B58F7D84BD0895C8
:100C40008091B0008F7703C08091B0008F7D80933A
:100C5000B0000895809190008F7707C08091900038
:100C60008F7D03C080919000877F809390000895CE
:100C70008091A0008F7707C08091A0008F7D03C076
:100C80008091A000877F8093A0000895809120012B
:100C90008F7707C0809120018F7D03C08091200154
:100CA000877F809320010895CF93DF9390E0FC012C
:100CB000EA55FE4F2491FC01E451FE4F84918823B4
:100CC00061F190E0880F991FFC01E45BFD4FC59135
:100CD000D491FC01EE5CFD4FA591B491611109C066
:100CE0009FB7F8948881209582238883EC912E23E6
:100CF0000BC0623061F49FB7F8943881822F8095E1
:100D000083238883EC912E2B2C939FBF06C08FB733
:100D1000F894E8812E2B28838FBFDF91CF9108951F
:100D20001F93CF93DF93282F30E0F901E05AFE4F55
:100D30008491F901EA55FE4FD491F901E451FE4F37
:100D4000C491CC23C9F0162F81110E94FE05EC2F0F
:100D5000F0E0EE0FFF1FEE5CFD4FA591B4918FB751
:100D6000F894111105C09C91ED2FE095E92302C084
:100D7000EC91ED2BEC938FBFDF91CF911F910895F4
:100D80000895A1E21A2EAA1BBB1BFD010DC0AA1FCC
:100D9000BB1FEE1FFF1FA217B307E407F50720F0E4
:100DA000A21BB30BE40BF50B661F771F881F991F5F
:100DB0001A9469F760957095809590959B01AC01A8
:100DC000BD01CF010895EE0FFF1F881F8BBF079055
:100DD000F691E02D19945058BB27AA270E940307CB
:100DE0000C9476080E94680838F00E946F0820F082
:100DF00039F49F3F19F426F40C9465080EF4E0953D
:100E0000E7FB0C945F08E92F0E94870858F3BA1794
:100E1000620773078407950720F079F4A6F50C9410
:100E2000A9080EF4E0950B2EBA2FA02D0B01B901E5
:100E300090010C01CA01A0011124FF27591B99F050
:100E4000593F50F4503E68F11A16F040A22F232F5C
:100E5000342F4427585FF3CF469537952795A795AC
:100E6000F0405395C9F77EF41F16BA0B620B730B53
:100E7000840BBAF09150A1F0FF0FBB1F661F771FC4
:100E8000881FC2F70EC0BA0F621F731F841F48F479
:100E9000879577956795B795F7959E3F08F0B0CF02
:100EA0009395880F08F09927EE0F979587950895E9
:100EB0000E943B0808F481E008950E9471070C9499
:100EC00076080E946F0858F00E94680840F029F4E4
:100ED0005F3F29F00C945F0851110C94AA080C9400
:100EE00065080E94870868F39923B1F3552391F3AD
:100EF000951B550BBB27AA2762177307840738F089
:100F00009F5F5F4F220F331F441FAA1FA9F335D0E5
:100F10000E2E3AF0E0E832D091505040E695001C99
:100F2000CAF72BD0FE2F29D0660F771F881FBB1F53
:100F3000261737074807AB07B0E809F0BB0B802D31
:100F4000BF01FF2793585F4F3AF09E3F510578F05D
:100F50000C945F080C94AA085F3FE4F3983ED4F326
:100F6000869577956795B795F7959F5FC9F7880F31
:100F7000911D9695879597F90895E1E0660F771F83
:100F8000881FBB1F621773078407BA0720F0621B14
:100F9000730B840BBA0BEE1F88F7E09508950E943F
:100FA0008F0888F09F5798F0B92F9927B751B0F064
:100FB000E1F0660F771F881F991F1AF0BA95C9F7DD
:100FC00014C0B13091F00E94A908B1E008950C94CA
:100FD000A908672F782F8827B85F39F0B93FCCF37D
:100FE000869577956795B395D9F73EF4909580955A
:100FF000709561957F4F8F4F9F4F0895E89409C07A
:1010000097FB3EF490958095709561957F4F8F4F3B
:101010009F4F9923A9F0F92F96E9BB279395F69551
:10102000879577956795B795F111F8CFFAF4BB0FCF
:1010300011F460FF1BC06F5F7F4F8F4F9F4F16C033
:10104000882311F096E911C0772321F09EE8872FBD
:10105000762F05C0662371F096E8862F70E060E079
:101060002AF09A95660F771F881FDAF7880F9695F2
:10107000879597F90895990F0008550FAA0BE0E896
:10108000FEEF16161706E807F907C0F0121613064A
:10109000E407F50798F0621B730B840B950B39F48A
:1010A0000A2661F0232B242B252B21F408950A26F0
:1010B00009F4A140A6958FEF811D811D089597F930
:1010C0009F6780E870E060E008959FEF80EC0895EE
:1010D00000240A9416161706180609060895002417
:1010E0000A9412161306140605060895092E039491
:1010F000000C11F4882352F0BB0F40F4BF2B11F405
:1011000060FF04C06F5F7F4F8F4F9F4F089557FD63
:101110009058440F551F59F05F3F71F04795880F65
:1011200097FB991F61F09F3F79F0879508951216FC
:1011300013061406551FF2CF4695F1DF08C01616A8
:1011400017061806991FF1CF869571056105089459
:101150000895E894BB2766277727CB0197F9089570
:101160000E943B0808F48FEF08950E94C8080C9471
:1011700076080E94680838F00E946F0820F09523D6
:1011800011F00C945F080C94650811240C94AA08C3
:101190000E94870870F3959FC1F3950F50E0551F8B
:1011A000629FF001729FBB27F00DB11D639FAA27BC
:1011B000F00DB11DAA1F649F6627B00DA11D661F0B
:1011C000829F2227B00DA11D621F739FB00DA11D2C
:1011D000621F839FA00D611D221F749F3327A00DE6
:1011E000611D231F849F600D211D822F762F6A2F82
:1011F00011249F5750409AF0F1F088234AF0EE0FE7
:10120000FF1FBB1F661F771F881F91505040A9F713
:101210009E3F510580F00C945F080C94AA085F3F34
:10122000E4F3983ED4F3869577956795B795F7954F
:10123000E7959F5FC1F7FE2B880F911D96958795C7
:1012400097F908950E943B08880B990B0895F8942C
:02125000FFCFCE
:1012520054656D703A2000430048756D6964697485
:10126200793A20002500000000005A036003CC01F7
:10127200CF010D0A006E616E00696E66006F7666C0
:0212820000006A
:00000001FF
